:02000002D0002C
:1040000000400D0048C70D00000006000C0005012F
:084010000401BD0B00000000DB
:044018007CAF0D006C
:1040200009480A49884208B505D0094A824202D0A7
:10403000121A05F08FF80748074A0021121A05F0F6
:1040400097F8014808BD00BF28E3032044C50D00D0
:1040500004E5032008E50320F4E7032070B5074ECC
:10406000074C03F033FBA41BA4080025A54200D194
:1040700070BD56F8043B98470135F7E714C50D00AD
:1040800038C50D0000F008BE08B500F037FEBDE8E9
:10409000084003F0DDBA02F0F3BE02F0F1BE02F018
:1040A000F7BE02F0F5BE000008B5034A00210C205F
:1040B00002F032FEFEE700BFE9690D000078B0FAB9
:1040C00080F04009704701230370704737B50446FC
:1040D0000846019105F082F86368A268451CE8185B
:1040E000904208D8206801992A46184405F032F811
:1040F00060682844606003B030BD000038B5846952
:104100000A4B036005467CB16368013B63605BB9A1
:10411000236820469B689847A368013BA3601BB9AE
:1041200023682046DB689847284638BDF4C00D0058
:104130000EB403B503AB002153F8042B019303F035
:10414000DEF902B05DF804EB03B0704708B502F089
:1041500053FC034B1860BDE8084002F079BE00BF75
:10416000D8E7032003682BB14268934202D2184675
:1041700004F0D9BF0020704738B50568044645B142
:1041800043689D4205D2284605F028F801300544D1
:104190002560204638BD000038B504460B46D0E9FE
:1041A00001012568044A091A284402F081FE636867
:1041B00001300344636038BD90AF0D0038B504464C
:1041C0000B46D0E901012568044A091A284402F087
:1041D0006FFE636801300344636038BD93AF0D0028
:1041E00013B5D0E9013104460068064AC91A8DEDBD
:1041F000000B184402F05CFE636801300344636006
:1042000002B010BD97AF0D0010B5164C204602F05D
:1042100069F82046012101F000FA00224FF0011355
:1042200011492046C4E9042303F064F80F4B02212E
:1042300093ED000B204603F057F90D49204603F09B
:1042400059F80C4B022193ED000B204603F04CF97A
:10425000204602F0B3FA03F061FBBDE8104003F022
:1042600050B800BFC8E503209DAF0D0038E603201D
:10427000A8AF0D0040E6032008B50023437700688F
:1042800003F04EFEBDE8084002F038BB2DE9F043D4
:104290008F188FB0B942CDE905170646894690467A
:1042A00080F0C28005A80D88FFF766FF03689F4273
:1042B00040F2BA8005980378412B49D1013004F0CF
:1042C00032FF052837DDFF2447F276239D4200F0B8
:1042D000D38041D847F261239D4200F0A88047F285
:1042E00064239D426BD046F670539D4241D1784D78
:1042F000784EDFF8F4810598874240F29580037884
:10430000412B4BD1013004F00EFF052839DDFF248D
:1043100005A8FFF731FFDDF814902946484604F060
:1043200053FF014600283DD1204604F001F805A8BE
:10433000FFF722FFDFE70598013004F0F4FE0028C4
:10434000C1DB0598013004F0EEFE0E30C4B2BBE7CD
:1043500005A8FFF707FFF9E747F264739D424FD0C6
:1043600047F276739D4200F0978047F261739D4259
:104370006FD00023CDE9013302220092728B1946DF
:104380003AE00598013004F0CEFE0028BFDB059826
:10439000013004F0C8FE0E30C4B2B9E705A8FFF73B
:1043A000E1FEF9E73146484604F00EFF28B14146E8
:1043B000484604F009FF0028B9D10121B4E70AAB4F
:1043C0004549079307A810230025CDE90853FFF7B7
:1043D0007DFE07A82146FFF7DFFE204603F0D2FF4F
:1043E000014607A8FFF7EAFE089BCDE90155013B0E
:1043F0000093079B2A461421304600F097FA13E0F9
:1044000005A8FFF7B9FE03689F420DD9A4B20121A8
:10441000204603F08DFF05A8FFF7A4FE011E18BF7C
:104420000121204603F095FF0FB0BDE8F0830AABF1
:10443000079307A8102329490025CDE90853FFF762
:1044400045FE07A82146FFF7A7FE204603F0ADFF73
:10445000C6E705A8FFF790FE03689F42E4D9A4B21F
:104460000121204603F064FF05A8FFF77BFE01460B
:10447000204603F0B1FFD7E720468DF8284002F030
:104480003FFA03460AA823B1154A934201D0984740
:10449000CAE702F031FAC7E705A8FFF76DFE059BF2
:1044A0008DF81C40A3EB0901A8EB01012046CDE9E2
:1044B0000A310C9102F02EFA03460AA907A823B18B
:1044C000084A934201D09847AEE702F016FAABE7EC
:1044D000B4AF0D00B7AF0D00BFAF0D00C2AF0D0000
:1044E000F9680D00FB680D00BBAF0D002DE9F04130
:1044F0008CB004AF044605220068391D03F045F86E
:10450000B8B3052804D000202037BD46BDE8F081AF
:10451000B7F80520130A43EA0223B7F80720A7F8E3
:10452000053099B2130A43EA02231FFA83F8A7F869
:1045300007300029E7D03B7923BB02F0DBF90246C4
:10454000E060607FB7F80730C0B9B7F805100129FF
:1045500014D1092B0FD0C82B01D0042BD4D10125A5
:1045600062612046657700F03BFBFFF7EFFD02F04C
:10457000C5F90120C8E703236377C5E7581F18BFB3
:104580000120C1E7B8F5806F03D92046FFF774FE1C
:10459000EFE708F1080323F007036E46ADEB030DC8
:1045A00004AD20684246294602F0EFFF80454FF0F7
:1045B00000007FD1B7F80730E85402F09BF93B794F
:1045C000E060142B00F0A68048D80F2B00F0A280EA
:1045D00007D8022B48D0062B51D02046FFF74CFEBF
:1045E00058E0112BF9D100233B70B7F807302B446A
:1045F0009D42C7E903534DD207F10C00D5F8008066
:10460000FFF7BAFDFB68B7F807105D1B4D1BC7E944
:1046100005357B68FD61C3F30F236383644B9845C5
:1046200000F0BF8000F28C80A3F57F236FF400724E
:104630001344984500F09D8079D8A3F50033063BDC
:10464000984500F09C8003F50033033398456BD107
:1046500007F11401384602F050F965E0292B1BD010
:10466000372B17D01D2BB8D1637F43B90123637754
:10467000204600F0B5FAFFF769FD02F03FF900238C
:10468000C821B7F805200091CDE90133194620462D
:1046900000F04CF901200DE0A3681BB9402002F0A6
:1046A000EFFBA060B7F80780A8444545C7E9055867
:1046B00002D30020B54627E729464022A06804F02F
:1046C000A7FDA368002583F83F5007F11400FFF70A
:1046D00053FD036843451BD2786920B1BB699842FA
:1046E00014D204F024FD85B2206803F019FC23687D
:1046F000A2685A631D870023637702F0FBF8A0F5D8
:104700009C500838C4E903006061C3E72846EAE723
:104710005025E9E77B68B7F80720C3F30F236383CD
:1047200029462046FFF7B2FD00236383B2E7214B01
:104730009845F9D107F11401384602F0DEF8F3E7A5
:104740001D4B984521D003F19F6303F5003303F51A
:10475000807398451FD003F16E4303F5302303F5B2
:1047600086739845E0D107F11401384602F0C5F888
:10477000DAE707F11401384602F0BFF8D4E707F191
:104780001401384602F0B9F8CEE707F114013846B3
:1047900002F0B3F8C8E707F11401384602F0ADF8AB
:1047A000C2E707F11401384602F0A7F8BCE700BFE2
:1047B000766673006462670061636F6E2DE9F04195
:1047C00004468CB00D46FFF7C1FC637F022B00F05E
:1047D000A880237F628B0133DBB223770AB10125E6
:1047E00016E0022BFBD8206803F0B9F9B8B125B95F
:1047F000206803F03BFB002811DD2046FFF776FE22
:1048000005460028F4D1206803F08AFB02F076F810
:10481000237F013B237728460CB0BDE8F08102F0EE
:1048200069F80646206803F09AF9677F012F05466C
:1048300029D120B966612046FFF71EFDE8E7E3684D
:104840004FF21862F31A934204D92046FFF714FD81
:104850000025DDE74AF6C872934203D82369F31AAC
:104860009342BCD9636941F27072F31A9342B6D98C
:104870000023CDE9013300931A460621204600F0BB
:1048800055F86661ABE7002FA9D16269B21A40B151
:1048900041F270739A42A2D9206803F041FB677716
:1048A000D6E741F288339A4299D9206803F038FB61
:1048B000D4F800C0DCF834E0BCF83880BEF1000F5A
:1048C0000BD02B4642467146604603F087FB431EE1
:1048D0005D425D418DB966619AE7134B06930CF119
:1048E00020070FCF07AD0FC53B682B7042467346BC
:1048F00006A9604603F03FFAE9E7636805930126DD
:104900001846268304F06AFC0022CDE90122059BAB
:10491000009032461D21204600F008F823696361AB
:1049200076E7002577E700BF24C00D002DE9F04FA2
:1049300083B000AF044600683D6B88461646994632
:10494000EB4603F00CF900287FD0B8F11D0F04D816
:104950004C4B23FA08F3DB0702D4637F012B74D19D
:1049600046B9668B36B9238B01339BB2002B71D0CD
:104970002383268BA8F10C03082B16D8D4E9032334
:10498000934238BF134603F1420A01F0B3FFAAEB8A
:104990000000002860DB00212046FFF70FFF01F038
:1049A000A9FFAAEB00000028F5DAB9F1000F5AD0F0
:1049B0006B1D7A6B002ABA6B08BF002203EB020A58
:1049C0000AF1070323F00703ADEB030DBB6BC7F838
:1049D00004D0EA18C2F3072376BA43EA02238DF81B
:1049E0000080ADF80160ADF80330B9F1000F3CD0A4
:1049F000002D3AD02A4649460DF1050004F0AAFBE5
:104A0000681D7B6B3BB1BB6B2BB11A467B68796B26
:104A1000184404F09FFB002555452AD2AAEB050255
:104A20007B682068B2F5806F28BF4FF48062591907
:104A300003F07FF80646002001F05AFFBEB9206857
:104A400003F06EFA667701F059FF0C37DD46BD467C
:104A5000BDE8F08F01238BE7217F0029A5D12046F7
:104A6000FFF7ACFEA1E70523A3E70520C9E735441E
:104A7000D2E703D02046FFF7FFFBE6E701F03AFF5D
:104A80002061E2E745000020F0B52DED028BB0EE8D
:104A9000418AF0EE618AADF22C4D1C460AAB0F46FE
:104AA00016461E49079300224FF48063054607A867
:104AB0008DED040BCDE90823FFF708FB394607A865
:104AC000FFF76AFB314607A8FFF766FB9DED040B75
:104AD00007A8FFF785FBB0EE480AF0EE680A07A8C2
:104AE000FFF77EFBA4B9DDE90723591C0891D454D4
:104AF000089B0022013B0093CDE90122079B142172
:104B00002846FFF713FF0DF22C4DBDEC028BF0BDD4
:104B1000214607A8FFF7DAFAEAE700BFC5AF0D00A4
:104B2000F0B52DED028B02F1080323F0070385B0E9
:104B300000AFADEB030D1446684604F00BFB0026F6
:104B4000694638460DF8046002F04EFB384602F024
:104B500071FB10EE100A03F025FF41EC180B02F078
:104B6000DDFE6A461849194D194CFFF7E1FA02F0CB
:104B7000D5FE02F0C6FB02F0D1FEB0EE480AF0EE20
:104B8000680A022102F0B0FC124B1A78B2B185ED2E
:104B9000008B1E70FFF738FB012295ED001B94ED92
:104BA000000B0D4B0D481146FFF76EFF384602F023
:104BB000D0FA1437BD46BDEC028BF0BD012284ED66
:104BC000008B1A70E6E700BFC8AF0D0040E6032077
:104BD00038E6032028E30320CBAF0D000CE50320CB
:104BE00000B595B004AB00220193492300930292D3
:104BF000034B1121FFF79AFE15B05DF804FB00BFCF
:104C000011B00D002DE9F04115468CB00446043575
:104C100040F6B8300F46984601F06AFE0FCD01AE5F
:104C20000FC62B683370676001F064FEA0F59C50DE
:104C3000083801AFC4E9030060610FCF07AE0FC6AB
:104C40003B68337007AF0FCF25684FF0000CC5F8F5
:104C500034C0A5F8388020350FC533682B70664600
:104C600044F24F67206803F05BF9667701F042FE7B
:104C70000546637F012B0CD001F03CFE401BB8427F
:104C800004D800212046FFF799FDF2E7637F012B4E
:104C9000E8D10CB0BDE8F08100B589B0A223009343
:104CA000AC22EA23A72102A802F0C0FD02AA42F228
:104CB00082330F490F48FFF7A5FF0F4800F0FCFCB7
:104CC0000D4801F00FFB01210B4800F0A6FC0A483B
:104CD000002303614FF00113436101F06FFD02F007
:104CE0001DFE4FF4165102F00DFE09B05DF804FBF5
:104CF000D1AF0D000CE50320C8E503201FB5164C0D
:104D000016480021FFF75AFD204600F0FEFC204621
:104D100001F0E8FA2046012100F07FFC00224FF06C
:104D200001130F48C4E9042300F0A7FE20B10C488A
:104D300000F0ECFF04B010BD684602F091F8009955
:104D4000074800F08BFF684602F003FA0549044863
:104D500001F024F9EEE700BFC8E503200CE50320CD
:104D600068E50320F2AF0D0037B51B4D002400218C
:104D7000012001F0F1FF194B1949009440F25B72D8
:104D8000284600F071FD2846164D174A174903F0D2
:104D900089FB0721284600F061FC2846144D124A81
:104DA000144903F07FFB284603F004F905F11C00C9
:104DB00002F0F8FC0C4A10496C632C87284603F07B
:104DC00071FB0E4BC3E90054C3E90244C3E9044438
:104DD0009C619C8303B030BD68E50320214B0D002E
:104DE000FAAF0D00C8E5032008E50320A55F0D001C
:104DF0002CE5032029560D00FD400D000CE5032095
:104E0000704710B51021044603F051FB204610BD39
:104E100073B5044608462279A36832B1A3B90B4999
:104E200002B0BDE8704002F065BA094A267B094D20
:104E30000949647B012E18BF2946CDE900140749B2
:104E4000FFF776F902B070BD054AEFE76DB00D00CF
:104E5000B3AF0D0069B00D0065B00D0083B00D005B
:104E60005CB00D002DE9F04F85B01F46BDF93880CC
:104E7000BDF83C30A8EB0209A7EB010AB9F1000F1D
:104E8000B8BFC9F10009BAF1000FB8BFCAF1000AF2
:104E9000D14583460C46154604DD3A462C46474626
:104EA0000D469046BC4205DD2A46454690462246C0
:104EB0003C4617463E1BB2B20092A8EB0502002A00
:104EC000B8BF52420192C6F3C03202FA86F6454597
:104ED000B4BF01224FF0FF3276100292BC421CDCBC
:104EE000DBF800200393D145D2F81880C7BF2946CC
:104EF00022462A4621465846C047019A039BB61AC5
:104F0000B1B236B2002E05DA029A1544009A56184C
:104F10002DB236B2013424B2E0E705B0BDE8F08F1F
:104F2000704710B404682469A4465DF8044B6047D8
:104F300030B40468BDF808500295A46BA44630BC98
:104F4000604730B40468BDF808500295E46BA4468D
:104F500030BC604770B4BDF90C50BDF810600468F7
:104F6000CDE90356246CA44670BC60472DE9F3419B
:104F70001C460368BDF820805B6905461646013C67
:104F800034440F4624B298472B68CDF8048000942F
:104F90009C6A28463B4632463946A0472B68DB6A66
:104FA000284602B0BDE8F04118472DE9F3411D46FF
:104FB0000368BDF820805B69044617460E46984793
:104FC000CDE9007822686B1E3344956A20461BB2F7
:104FD0003A463146A8472368DB6A204602B0BDE85E
:104FE000F04118472DE9F3471E460368BDF92890A4
:104FF0005B69BDF82C800C46054617469847264449
:10500000B4422B680BDACDF80080D3F820A02146FB
:105010004B463A4628460134D04724B2F0E7DB6AD3
:10502000284602B0BDE8F047184713B50268019161
:10503000B0F90E100091146CB0F90C30002211463A
:10504000A04702B010BD2DE9F3471D460368BDF827
:105050002C805B69BDF9289004460F461646984798
:105060002368CDF80080D3F824A032462B46394679
:105070002046D0472368CDF8008009F1FF32324442
:10508000D3F824A039462B46204612B2D0472368D5
:10509000CDF80080D3F820A032464B463946204652
:1050A000D0476B1ED9192368CDF800801D6A2046B1
:1050B0004B46324609B2A8472368DB6A204602B055
:1050C000BDE8F047184770472DE9F7439942164667
:1050D000BDF92870BDF82C90026880460D461C462C
:1050E00013D1BE42C8BF3346CDF82890C4BF3E4658
:1050F0001F467B1C946B9B1B1BB2324629464046C5
:10510000A44603B0BDE8F0436047BE420AD19942CD
:10511000C2BF0B4625461C46631CCDF82890D46BB5
:105120005B1BE9E753699847CDE90079D8F800306F
:1051300040469F6A324623462946B847D8F8003091
:10514000DB6A404603B0BDE8F043184701F00303B3
:10515000B0F90A208376C907B0F9083059BF8381B6
:10516000C2818281C381704730B54281C281074AC2
:10517000074D0181002481814FF0FF31C0E9051204
:105180004460056004610477046230BD01010001E0
:10519000A8B50D002DE9F04F89B0CDE902120268E3
:1051A000BDF948800493BDF94C3052690593BDF8B0
:1051B00050A00446904718F107024FF0000648BF80
:1051C00008F10E024FEAE20B01963546039B019A65
:1051D000BDF904109A18059B8B4212B227DD049B7F
:1051E00033444FF0000906930FFA89F080451FFA07
:1051F00089F117DD4F0705BF069BC0106D001D5CD0
:1052000018BFEDB22B060AD5029B206807921944FD
:10521000836909B21F4620465346B847079A09F1E9
:105220000109E1E7019B013301935E44CEE7236866
:10523000DB6A204609B0BDE8F04F18472DE9F04F72
:105240002DED028B91B01646026ABDF874809DF870
:1052500078509DF87C4003911F46BDF87030049350
:105260008346002A40F0C580B0F90C308B4240F3F1
:105270004C81B0F90E30B34240F34781062313FB53
:105280000513002B40F3418106EBC403002B40F3D0
:105290003C81037F1BB9AF2F84BF0137FFB2DBF81E
:1052A000003058465B699847052209920022059212
:1052B000984A07EB8703D3180C93B3B20693059A69
:1052C0000C9B9B5C0793ABB20B93BDF80C3008931F
:1052D000039B02FB05F919FA83F90FFA89F308EE2B
:1052E000103A08230A93039B02EB030A4FF00009CC
:1052F0000FFA8AFA079ADBF80030D20752D5012D4F
:105300001FFA89F23ED1012C3CD19B6906991F46B8
:10531000049B0A4412B251465846B84709F10103AA
:105320004FFA83F9079B5B0807930A9B013B13F035
:10533000FF030A93DED1059F01377BB20593099BDA
:10534000013B13F0FF030993B9D1049B43450FD0F0
:10535000012DDBF800303BD1012C39D10899CDF873
:10536000008005311C6A3246082309B25846A0471E
:10537000DBF80030DB6A584611B0BDEC028BBDE8AB
:10538000F04F1847069914FB02F20A440499019160
:105390000094DB6918EE101A1F4612B22B465846CD
:1053A000B847BBE7049A4245B8D0012D1FFA89F2ED
:1053B00007D1012C05D19B6906991F460A44434633
:1053C000A8E70699CDF8048014FB02F20A44DFE74F
:1053D0000B9ACDF8048002EB8201089AE4000A449B
:1053E00011460094DC6932462B4609B25846A04764
:1053F000BEE7137A516812680D92FF1AFFB201EBF3
:10540000C70331F8372006929A780992DA780B921E
:10541000012D93F9052093F906A00A9201D8012CD9
:1054200057D9BDF9283008930FFA8AF30793DBF8B0
:10543000003058465B699847B3B24FF000080E93AE
:105440001AFA86F3C14647460F930B9B9F428FD2B1
:10545000079B0E9A3B4403FB0423002205920F9AFC
:105460001BB202EB070A08EE103A0FFA8AFA43461B
:10547000099A0599914241D25A1CD2B25B070C920B
:1054800007D1069B06990D9A01339BB212F8019041
:10549000069319F0800F12D0012DDBF80030BDF813
:1054A0000C101AD1012C18D10A9A9B691144059A43
:1054B00011441E465246049B09B25846B047059E09
:1054C0000136F3B24FEA490905935FFA89F90C9B5B
:1054D000CEE70023CDE90733A9E70598089A0244EF
:1054E00002FB0511049ACDE90042DB6918EE102A8F
:1054F0001E4609B22B465846B047E0E7099B0137E4
:1055000098445FFA88F8FFB29FE711B0BDEC028BB8
:10551000BDE8F08FA0B00D00F0B5026A85B004467A
:105520000B46002A34D10A2908D1438A0282427EDE
:1055300003EBC2036382012005B0F0BD0D29FAD050
:10554000E17E007E657E71B1B4F91060062111FB29
:105550000061B4F90C60B142C1BFB4F912102282EB
:1055600001EBC5026282E28A0192A28A0092CDE931
:105570000205B4F91220B4F910102046FFF75EFEC0
:10558000237E228A03EB430302EB43032382D2E709
:105590000A2907D100230382937A417E428A01FBC4
:1055A0000323C7E70D29C6D0157AA942C3D3517A80
:1055B0009942C0D351685D1BEDB201EBC505AF78D0
:1055C0002FB3E97819B3E17E007E667E91B195F93B
:1055D00005103944B4F9107000FB0171B4F90C7076
:1055E000B94207DD00272782B4F91210927A02FB34
:1055F00006126282E28A0192A28A0092CDE9020634
:10560000B4F91220B4F910102046FFF717FE2979DB
:10561000237E228A01FB0323B8E7012938BF012139
:10562000017641767047000010B5064B03600446D2
:10563000006D08B101F0F0F9204600F0DBFC2046D7
:1056400010BD00BF00B60D0010B50446FFF7ECFF1B
:105650002046702102F02BFF204610BD30B585B0EA
:1056600004460D4602F0F6FE104A1149CDE901212B
:105670004FF0FF328021034600922046202200F0A6
:105680003FFD0C4B23600023C4E9143504F158009E
:1056900000F054F804F1600000F050F804F16800E4
:1056A00000F04CF8204605B030BD00BF801A06005F
:1056B000A086010000B60D0013B50446503001F07D
:1056C000A3F9636DD90705D50222042104F158001E
:1056D00000F048F8636D9A0705D50022032104F114
:1056E000600000F03FF8636D5B0705D502221146AC
:1056F00004F1680000F036F8012300933C220221F7
:10570000204600F0FDFD02B010BD10B5436DD90775
:10571000044602D5583000F032F8636D9A0703D57D
:1057200004F1600000F02BF8636D5B0705D504F110
:105730006800BDE8104000F022B810BD00210A2228
:10574000C0E900127047002310B50446C17183718F
:1057500088B202F017FE08B10323A37101F04CF9DF
:10576000206010BD38B50C4605461146A0B202F0C7
:10577000DFFD21462846BDE83840FFF7E4BF38B5D5
:105780000446C07902F0FEFDA579003825F0080333
:1057900018BF0120C5F340058542A3710AD001F06E
:1057A0002BF9A379206083F00203A371A079C0F3E1
:1057B000C00038BD01F020F92368C01AA3889842C0
:1057C000F4D3A37903F00103AB42EFD001F014F955
:1057D000A379206083F0010343F00803E5E791F823
:1057E0005C3010B50446016013B1886D01F01CF9FE
:1057F000204610BD10B5036893F85C20044612B132
:10580000986D01F019F9204610BDF8B51F469DF8B6
:10581000243004460D4616462BB1012380F85C3037
:10582000583001F0F1F8089B23630023636306B14D
:10583000A66425B1294604F1380001F0E9FC069B75
:105840002365079BE069A4F84C70FF2BB8BFFF23CA
:10585000A4F8543008B1FEF724FCB4F85400FEF765
:105860001CFCE061F8BD00002DE9FF410446002565
:10587000174698460E4602F09DFB0D49E56104F17E
:10588000380001F0B1FC9DF82830A564CDE9028311
:10589000FF220F23CDE90032204684F85C503B46BE
:1058A0002A463146FFF7B1FF204604B0BDE8F0813B
:1058B000B3AF0D0010B50446204602F0D7FA002819
:1058C000FAD0204602F00BFAC0B210BD2DE9F04725
:1058D0000546C4690F46FFF7EDFF2070EB6993F8AA
:1058E00000A04FF001090AF0F00A4FF000084C4602
:1058F0002846FFF7DFFF2646EB69985500F07F0347
:1059000013FB09F3984401340306A4B21FFA88F884
:105910004FEAC919ECD4631EBAF1300F3B7024D1A1
:105920002846EF69FFF7C6FF38552846EF69F41C93
:10593000FFF7C0FF0236B6B2A4B2B8550226B6B21F
:10594000B1462746C14512D22846FFF7B3FFB5F846
:105950005430BB4288BFEB6909F1010988BFD855B3
:105960000137BFB21FFA89F9ECE70026E7E7A8EB99
:105970000600B0452CBF064600263444B5F8540056
:10598000A4B2A0422CBF20460020BDE8F087F7B5A6
:105990008C461E461D4607460023AE4602A805F06B
:1059A0007F01BEF17F0F03F10104034488BF41F082
:1059B0008001BEF17F0F4FEAD515E4B203F8041C55
:1059C00010D8C4F10403D11802F803C0C4F10503D0
:1059D000134401A80532934206D010F8015B03F886
:1059E000015BF8E72346D8E7721C2244384602F0F0
:1059F000A0F8054601F000F8621C78623244A8B2B3
:105A0000131A5842584103B0F0BD13B5044601467D
:105A100001A8FFF7E4FEE369E0221A70E3690022BF
:105A20005A70E1690222204602F083F8204602F013
:105A300077FA00F0E1FFC4E9090001A8FFF7DAFEF8
:105A400002B010BD0233F0B5044698B20023CD5C1D
:105A500055B1B4F85460864203F1010704D9461CDD
:105A600015543B46B0B2F2E799B2441A22440912E7
:105A700002F8021C02F8013CF0BD38B5044602F001
:105A80006EF8002814BF0125002502D1204602F03F
:105A900047FA284638BD00002DE9F04788B0044693
:105AA000DDF840809DF850A0894617461E46FFF756
:105AB000E4FF0546002840F0CB80214601A8FFF70F
:105AC0008EFEA16C002940F08780B4F84C20A16BB9
:105AD0002B46204602F082FA002879D00123238445
:105AE0009DF85430E269042B40F08180594B1868CE
:105AF00099889B79ADF80C108DF80E300290C2F8A1
:105B000005009DF80E30BDF80C10A2F80910D372F4
:105B10000C23B8F1000F7FD09DF848009DF8442079
:105B2000400140EAC20040F00600C0B2BAF1000FE6
:105B300001D100F0FD001FB1002E6FD140F08000B8
:105B4000E269D054226DE169581C12120A549A1C61
:105B5000E169206D88540333E26949462046FFF726
:105B600071FF0346B8F1000F0BD0E26941462046B1
:105B7000FFF768FFE269139903462046FFF762FFCB
:105B8000034667B1E26939462046FFF75BFF0346EB
:105B90002EB1E26931462046FFF754FF0346053B2C
:105BA000E2699BB210212046FFF7F1FE00F024FFCE
:105BB000C4E909004FF47A76204602F057F980BB19
:105BC00000F01AFFA36AC01A236D73439842F3D9F9
:105BD000204602F0A5F934E002A801F033FEB4F843
:105BE0004C202B4602A9204602F0C5F874E71A4B58
:105BF000186859681B7A0DF1080CACE803008CF8A2
:105C0000003002AB03CBC2F80500C2F809109CF8C3
:105C1000003053730E237CE7022087E740F0C0007A
:105C20008EE702A92046FFF751FE0428D0D1E36990
:105C3000DE78002ECCD100F0DFFE0125A06284F8D2
:105C40002C6001A8FFF7D6FD284608B0BDE8F08714
:105C50000025F9E750B60D0057B60D007FB50123BA
:105C60000422CDE904320023CDE90233CDE900332B
:105C70001A46FFF711FF07B05DF804FB73B5044641
:105C80000E46FFF7FAFE0546C8B1214601A8FFF708
:105C9000A6FDE36962221A70E36902225A70E36981
:105CA00032129A70E369DE70E1690422204601F045
:105CB00040FF051E01A818BF0125FFF79BFD2846E0
:105CC00002B070BD73B504460E46FFF7D6FE05461A
:105CD000C8B1214601A8FFF782FDE36972221A705C
:105CE000E36902225A70E36932129A70E369DE7046
:105CF000E1690422204601F01CFF051E01A818BF1F
:105D00000125FFF777FD284602B070BD2DE9F04F61
:105D10002DED028B87B000AF0446FFF7AEFE814643
:105D2000F8B1214607F11400FFF759FD00F064FEB9
:105D3000226D4FF47A735343A26A821A9A4206463E
:105D400003D8626A821A934221D294F82C307BB134
:105D5000204602F0E5F84FF0000907F11400FFF7C4
:105D600049FD48461C37BD46BDEC028BBDE8F08FAF
:105D7000E269C0211170E2695370E1690222204694
:105D800001F0D7FEC4E90966012384F82C302046CF
:105D900002F06CF80028E0D007F113012046FFF76D
:105DA00095FD83460028D8D0E369A662197801F0F2
:105DB000F002302A7FD1D4F830A0BAF1000FCCD055
:105DC00097F813C06A4608EE102A03EB0C025578C8
:105DD000917801EB05218DB205F108026946D208E0
:105DE000A1EBC20295460CF10302FA6003EB020E2E
:105DF0000DEB05026846C7F808D07A60D7E90121A3
:105E00008A4206D00A461EF8018B02F8018BBA605E
:105E1000F4E70022425593F80080F96808F006087C
:105E2000ABEB0C02033AB8F1020FA2EB05022944D6
:105E300025D113F801E01944023A91F801B00CF1B0
:105E40000501294419440BEB0E2BD047E36940228E
:105E50001A70E3691FFA8BFB83F80180E3694FEA4C
:105E60002B229A70E36983F803B0E169042220468B
:105E700001F05FFE666218EE103A9D466DE7B8F1DC
:105E8000040F15D113F801E01944023A91F801B05A
:105E90000CF10501294419440BEB0E2BD047E369A3
:105EA00050221A70E36902221FFA8BFB5A70D5E761
:105EB0001944D047DFE7502A08D19A78D97801EB06
:105EC000022189B22046FFF7D9FE46E7402A12D1C7
:105ED000626B002A3FF441AFBBF1040F7FF43DAF8A
:105EE00011F0060F7FF439AF9978D87800EB0120D4
:105EF00080B2904731E7602A08D19A78D97801EBCF
:105F0000022189B22046FFF7DDFE26E7702ADFD0A6
:105F1000902A3FF422AFC02A0AD1D0221A70E36936
:105F200000225A70E1690222204601F002FE14E7C5
:105F3000D02A04BF002384F82C300EE7F7B50446BE
:105F40000F461646FFF799FD054610B3214601A8F6
:105F5000FFF745FC238C01339BB2EBB12384238CE8
:105F6000E2691B125371E369228C9A71E26907237B
:105F700039462046FFF766FDE3691E54043883B2B4
:105F8000E26982212046FFF702FD054601A8FFF7DE
:105F900031FC284603B0F0BD0123DFE70022FFF704
:105FA000CDBF000038B50546FFF767FD10B12846A4
:105FB000FFF72BFDE86908B1FEF773F805F138002B
:105FC00001F0C7F8AC690A4B2B607CB16368013BF8
:105FD00063605BB9236820469B689847A368013BD0
:105FE000A3601BB923682046DB689847284638BD64
:105FF000F4C00D0010B5044B03600446C06A08B13C
:1060000000F046FF204610BD1CBB0D0010B5044635
:10601000FFF7F0FF2046502102F049FA204610BD5C
:10602000002910B54BDBB0F90C408C4247DD002A4B
:1060300045DBB0F90E40944241DD847E022C1FD036
:10604000032C26D0012C04D10489D24314440A46DF
:1060500021B2012B23D0022B32D083BB002A13465E
:106060000489C06AB8BFD31DDB1013FB041102F012
:10607000070201239340425C22EA030242541EE0DD
:106080000489C94321444489D243224409B212B24B
:10609000DFE74489C9430C44114622B2D9E7002AFC
:1060A00004891346B8BFD31DDB1013FB0411C36A68
:1060B00002F0070001228240585C02435A5410BD8E
:1060C000002A13460489C06AB8BFD31DDB1013FB36
:1060D000041102F00702012303FA02F2435C5A4062
:1060E000CCE710B5044690F93600012180B202F0E9
:1060F00030F9606A18B1BDE8104000F060BF10BD13
:1061000070B504461D460026FFF72EF8114B23609C
:10611000666215B902F09EF90546FF2384F8333014
:1061200084F836309DF9103084F837300A4BA36379
:10613000012384F83C30059BA3644FF6FF72069B55
:10614000A286C4E90A562664A4F84460E3642046A3
:1061500070BD00BF1CBB0D0068B60D00F8B504464D
:10616000806A0D4690B194F9301001F0CBFCA06A22
:10617000036800219B689847A06A036829469B68CA
:106180009847A06ABDE8F84001F0C3BC94F93530E7
:10619000014698B202F0DDF8606A20B12946BDE8F8
:1061A000F84000F093BF0826802794F9330005EAF1
:1061B000070180B202F0CDF894F93400012180B2D9
:1061C00002F0C7F894F93400002180B202F0C1F85F
:1061D000013E4FEA5707E8D1F8BD38B50446806A5A
:1061E0000D4680B1A16C01F07FFC002D204614BF4C
:1061F000A721A621FFF7B2FFA06A88B1E16CBDE834
:10620000384001F071BC606A18B104F1380100F047
:10621000EFFE94F93600002180B202F09AF8E4E72C
:106220002046BDE83840FFF75CBF2DE9F84304463F
:10623000806A0D468F1840B394F9301001F062FC6B
:10624000A06A036800219B6898470126BD42A06AA6
:1062500017D01F2E0CD901F05CFC94F93010A06A05
:1062600001F050FCA06A036800219B689847012652
:10627000A06A15F8011B036801369B689847F6B2BF
:10628000E4E7BDE8F84301F044BC94F93530014639
:1062900098B202F05EF8AF4222D0606A15F8019B16
:1062A00018B1494600F012FFF5E708264FF08008C4
:1062B00094F9330009EA080180B202F04AF894F92F
:1062C0003400012180B202F044F894F93400002136
:1062D00080B202F03EF8013E4FEA5808E8D1DAE712
:1062E000BDE8F883B0F90A30DA1D48BF03F10E02A9
:1062F000B0F90830C06AD2105A43002102F038BF0A
:106300002DE9FF411E46C36A9DF8288004460F46CA
:106310001546B3B12046FFF7E5FFB4F90A00B4F91A
:10632000081020281FDC20230122CDE9013220386B
:1063300073237339009300EBD070894B01EBD1715B
:106340001FE0B0F90A30D81D48BF03F10E00B4F9C0
:106350000830C010584300F093FDE0620028D9D106
:1063600004B0BDE8F08140234FF0010CCDE9013CC1
:1063700052234038523900937A4B00EBD07001EB36
:10638000D17140F34F0241F34F012046FEF702FF67
:10639000A06A84F83170002878D0002D74D1B4F947
:1063A0000A30202B0CBF3C253D2584F83050B8F135
:1063B000000F01D001F09CFBFEB194F937000028DA
:1063C0001BDB012180B201F0B3FF94F937000121FA
:1063D00080B201F0BEFF012001F000F994F937000E
:1063E000002180B201F0B5FF0A2001F0F7F894F91E
:1063F0003700012180B201F0ACFFA06A002874D000
:10640000A16C01F071FB042257492046FFF70DFFF4
:10641000A17A0139C9B22046FFF7A0FE53490422F0
:106420002046FFF702FF94F93130012B0CBF1021F9
:1064300014212046FFF792FE04224D492046FFF723
:10644000F4FEA3684B4A93425CD14B490422204698
:10645000FFF7EBFED9212046FFF780FE94F931309B
:10646000012B0CBF2221F1212046FFF777FE2046A9
:1064700042490622FFF7D9FEA06A002863D0E16CEA
:1064800001F032FB01206BE76DB28EE794F9350025
:10649000012180B201F04CFF94F93600012180B255
:1064A00001F046FF94F93600012180B201F051FF5E
:1064B000656A3DB1B8F1000F3FF47EAF284600F0A9
:1064C0006DFD79E794F93300012180B201F030FFCE
:1064D00094F93400012180B201F02AFF94F93400CC
:1064E000294680B201F035FF66E7606A18B104F111
:1064F000380100F07DFD94F93600002180B201F0F2
:1065000028FF80E71E4A93420ED11E4903222046EF
:10651000FFF78BFE94F93130012B0CBF9F21CF2167
:106520002046FFF71BFE95E7174A934292D1174981
:1065300003222046FFF779FE94F93130012B0CBF7E
:106540001021AF21ECE794F93600012180B201F06F
:1065500000FF606A002895D000F031FD92E700BF8F
:1065600034B90D0074B60D007CBB0D0080BB0D006E
:1065700084BB0D00800020008EBB0D0088BB0D0089
:106580008000400092BB0D006000100095BB0D0024
:1065900070B5002ABDF810503DDBB0F90A409442B6
:1065A00039DD0029BEBF5B181BB20021B0F90840DD
:1065B000CE18A642C4BF631A1BB2002B2BDDC06AE3
:1065C000D61014FB0611014402F00700012282409C
:1065D000012DD2B216D0022D0BD0E5B9D243D2B2E2
:1065E0000B44994217D011F8010B104001F8010C2F
:1065F000F7E70B4499420ED011F8010B504001F817
:10660000010CF7E70B44994205D011F8010B104338
:1066100001F8010CF7E770BDF0B50029BDF8146072
:1066200076DBB0F90850A94272DA002ABCBFD21852
:1066300013B2B0F90A40B8BF0022D718A742C4BFAE
:10664000A31A1BB2002B63DDC2F3C404C76A15FB97
:10665000041112F00702DBB207EB010423D0C2F1F0
:106660000802D2B22C4D93423CBF4FF0FF0CA2EB7C
:10667000030EAD5C3CBF4CFA0EFC0CEA0505012E86
:1066800007D0022E2ED04EB917F801C02CEA05050E
:1066900003E017F801C045EA0C057D54934237D357
:1066A000B0F908100C449A1AD2B2072A0ED9022E59
:1066B0001DD113462178C9432170083BB0F9081059
:1066C000DBB2072B0C44F5D802F0070202B3134BE0
:1066D000012E9B5C19D0022E1BD0CEB9227822EA63
:1066E000030314E017F801C085EA0C05D5E7002E76
:1066F00014BFFF25002513462570083BB0F908108C
:10670000DBB2072B0C44F7D8DEE722781343237063
:10671000F0BD22785340FAE76CBB0D0074BB0D004E
:1067200070B41446827EBDF80C60022A0DD0032A94
:1067300018D0012A11D10289E443144424B20396EB
:106740000A46214670BCFFF767BF42890589E443CA
:1067500019441444691A24B209B20396224670BC43
:10676000FFF716BF45891944691A09B2E7E730B443
:106770001446827EBDF80850022A0DD0032A18D094
:10678000012A11D1E2180489A41A24B202950A46FA
:10679000214630BCFFF7FCBE0289C9431144E21810
:1067A0004489A41A09B224B20295224630BCFFF7EC
:1067B00033BF4289C943114409B2E7E72DE9F843E1
:1067C0000446806A002842D0A16C01F08DF9474947
:1067D00005222046FFF729FD217A01392046C9B25A
:1067E000FFF7BCFCB4F90A30DE1D48BF03F10E060A
:1067F000D4E90A052389F61013FB06F615FA86F686
:1068000000283AD094F9301001F07CF9A06A0368AE
:1068100040219B6898470127B542A06A24D01F2FCA
:106820000CD901F076F994F93010A06A01F06AF9F8
:10683000A06A036840219B6898470127A06A15F861
:10684000011B036801379B689847FFB2E4E7606A61
:1068500018B104F1380100F0CBFB94F936000021A7
:1068600080B201F076FDB2E701F053F9A06A78B387
:10687000E16CBDE8F84301F037B994F93500012126
:1068800080B201F066FDB542F0D0606A15F8019B58
:1068900018B1494600F01AFCF5E708274FF08008C8
:1068A00094F9330009EA080180B201F052FD94F92D
:1068B0003400012180B201F04CFD94F93400002134
:1068C00080B201F046FD013F4FEA5808E8D1DAE70F
:1068D00094F93600012180B201F03BFD606A18B1E5
:1068E000BDE8F84300F06BBBBDE8F88398BB0D0032
:1068F00000F074BE00F080B8704770477047000029
:1069000003065ABF024B53F820000020704700BF17
:10691000A0BB0D0003065ABF024B53F82000002015
:10692000704700BFA0BD0D0008B5024B1B689B68F7
:10693000019308BD6802030008B5024B1B68DB68C1
:10694000019308BD6802030008B5024B1B685B6831
:10695000019308BD2C02030008B5024B1B689B681D
:10696000019308BD2C02030008B5024B1B68DB68CD
:10697000019308BD2C02030008B5024B1B681B697C
:10698000019308BD2C02030008B5024B1B685B692C
:10699000019308BD2C02030008B5024B1B689B6ADB
:1069A000019308BD2C02030008B5024B1B681B6B4A
:1069B000019308BD2C02030008B5024B1B689B6FB6
:1069C000019308BD2C02030008B5024B1B685B69EC
:1069D000019308BD6C02030008B5024B1B685B689D
:1069E000019308BD1802030008B5024B1B68DB6861
:1069F000019308BD1802030008B5024B1B685B69D0
:106A0000019308BD1802030008B5024B1B681B6BFD
:106A1000019308BD4802030008B5024B1B685B6B7D
:106A2000019308BD4802030008B5024B1B689B6B2D
:106A3000019308BD4802030008B5024B1B681B6C9C
:106A4000019308BD4802030008B5024B1B685B6C4C
:106A5000019308BD4802030008B5024B1B689B6CFC
:106A6000019308BD4802030008B5024B1B685B692F
:106A7000019308BD6402030008B5024B1B681B6A42
:106A8000019308BD6402030008B5024B1B689B6AB2
:106A9000019308BD6402030008B5024B1B681B6824
:106AA000019308BD3C02030008B5024B1B68DB687C
:106AB000019308BD3C02030008B5024B1B681B692B
:106AC000019308BD3C02030008B5024B1B685B69DB
:106AD000019308BD3C02030008B5024B1B689B698B
:106AE000019308BD3C02030008B5024B1B68DB693B
:106AF000019308BD3C02030008B5024B1B681B6AEA
:106B0000019308BD3C02030008B5024B1B689B6A59
:106B1000019308BD3C02030008B5024B1B681B68CB
:106B2000019308BD2802030008B5024B1B68DB680F
:106B3000019308BD2802030008B5024B1B689B693E
:106B4000019308BD2802030008B5024B1B68DB69EE
:106B5000019308BD2802030008B5024B1B681B6A9D
:106B6000019308BD2802030008B5024B1B685B6A4D
:106B7000019308BD2802030008B5024B1B689B6AFD
:106B8000019308BD2802030008B5024B1B68DB6AAD
:106B9000019308BD2802030008B5024B1B681B6B5C
:106BA000019308BD2802030008B5024B1B685B6B0C
:106BB000019308BD2802030008B5024B1B681B6C3B
:106BC000019308BD2802030008B5024B1B689B69AE
:106BD000019308BD3802030008B5024B1B68DB694E
:106BE000019308BD3802030008B5024B1B681B6AFD
:106BF000019308BD3802030008B5024B1B689B6A6D
:106C0000019308BD3802030008B5024B1B681B6BDB
:106C1000019308BD3802030008B5024B1B689B6B4B
:106C2000019308BD3802030008B5024B1B681B68BE
:106C3000019308BD3002030008B5024B1B685B6975
:106C4000019308BD3002030008B5024B1B68DB69E5
:106C5000019308BD3002030008B5024B1B681B6A94
:106C6000019308BD3002030008B5024B1B685B6A44
:106C7000019308BD3002030008B5024B1B68DB6BB3
:106C8000019308BD3002030008B5024B1B681B6C62
:106C9000019308BD3002030008B5024B1B685B6C12
:106CA000019308BD3002030008B5024B1B681B6846
:106CB000019308BD4C02030008B5024B1B685B68DA
:106CC000019308BD4C02030008B5024B1B681B6909
:106CD000019308BD4C02030008B5024B1B685B69B9
:106CE000019308BD4C02030008B5024B1B689B6969
:106CF000019308BD4C02030008B5024B1B68DB6919
:106D0000019308BD4C02030008B5024B1B681B6AC7
:106D1000019308BD4C02030008B5024B1B685B6B76
:106D2000019308BD6002030008B5024B1B681B6D90
:106D3000019308BD6002030008B5024B1B685B6845
:106D4000019308BD2002030008B5024B1B685B6974
:106D5000019308BD2002030008B5024B1B68DB6AE3
:106D6000019308BD2002030008B5034B1B68D3F84C
:106D70008830019308BD00002002030008B5034BD2
:106D80001B68D3F89430019308BD00002002030073
:106D900008B5024B1B685B68019308BD4002030005
:106DA00008B5024B1B689B68019308BD40020300B5
:106DB00008B5024B1B68DB68019308BD4002030065
:106DC00008B5024B1B681B69019308BD4002030014
:106DD00008B5024B1B685B69019308BD40020300C4
:106DE00008B5024B1B689B69019308BD4002030074
:106DF00008B5024B1B68DB69019308BD4002030024
:106E000008B5024B1B681B6A019308BD40020300D2
:106E100008B5024B1B681B6B019308BD40020300C1
:106E200008B5024B1B685B6B019308BD4002030071
:106E300008B5024B1B681B6C019308BD40020300A0
:106E400008B5024B1B685B6C019308BD4002030050
:106E500008B5024B1B689B68019308BD4402030000
:106E600008B5024B1B68DB69019308BD44020300AF
:106E700008B5024B1B68DB6B019308BD440203009D
:106E800008B5024B1B681B68019308BD1C02030078
:106E900008B5024B1B685B68019308BD1C02030028
:106EA00008B5024B1B689B68019308BD1C020300D8
:106EB00008B5024B1B68DB69019308BD1C02030087
:106EC00008B5024B1B685B6A019308BD1C020300F6
:106ED00008B5024B1B681B6B019308BD1C02030025
:106EE00008B5024B1B68DB6B019308BD1C02030055
:106EF00008B5024B1B685B6C019308BD1C020300C4
:106F0000002240681146FFF77BBF0022406811460F
:106F1000FFF786BF40680022FFF77ABF4068002273
:106F200081F00101FFF764BF002340681A4619464B
:106F3000FFF756BF002340681A461946FFF748BFBF
:106F4000002240681146FFF73BBF0022406811460F
:106F5000FFF726BF406800220221FFF729BF002368
:106F600040681A46FFF714BF024B03225A60024AD8
:106F70001A60704754E60320A8BF0D000021FFF7F8
:106F800083BE0021FFF788BE10B504460846217075
:106F9000FFF75AFE00236360204610BD10B504467B
:106FA0000078FFF7EBFF48B920784FF6FF71FFF745
:106FB0003BFE2078BDE81040FFF7E3BF10BD00782E
:106FC000FFF7DFBF400830B518600024186888421A
:106FD000E5B206D90134082C02D040081860F5E764
:106FE0000725024B5B5D137030BD00BFDCBF0D0099
:106FF0002DE9F04306468FB000780C46FFF7BEFF40
:1070000000281BDB35781422002109A802F0B0F813
:107010000B23002209A92846ADF82430FFF724FEEF
:107020009DF82D3013B19DF82C5055B10027B9466D
:10703000B846012523795DB1C3B100200FB0BDE88A
:10704000F083DDF830809DF834909DF83570F1E7DD
:10705000002B35D1A368434508D18DF820908DF8D9
:107060002170BDF82020A3899A42E6D00023A168B0
:107070008DF80F300A9804AB0DF10F02FFF7A2FF55
:10708000217985B989B9A36843450ED38DF820903D
:107090008DF82170BDF82020A3899A4205D1049B68
:1070A000434502D1C9E70029F9D100230193637B4D
:1070B00000939DF80F20237B3078FFF7DDFDBCE7C0
:1070C000CDE900552B462A460121F5E708B50078A1
:1070D000FFF7B2FDC0B208BD10B50446006818B194
:1070E000FFF7D6FE0023236010BD10B50446FFF75E
:1070F000F3FF204610BD000010B5094B094C0222D9
:1071000000201A60084B2060A080A071A360FFF7E8
:1071100013FE2046054A0649BDE8104001F0C2B9F9
:1071200068E603205CE603200000FFFF08E503207B
:10713000EB700D0070B586B0064601AD684600F0F4
:1071400081FB0FCD341D0FC42B682370304606B071
:1071500070BD10B504460068FFF79AFE204610BDCA
:1071600010B50446006808B1FFF792FE0023C4E999
:107170000133236010BD38B504460D460068013167
:10718000FFF78EFE10B1C4E90005012038BD10B52F
:107190000368044623B143688B4201D3012010BD2C
:1071A0002046FFF7E8FF0028F9D0A368002BF5D1AF
:1071B00022681370F2E737B50D4611460192044676
:1071C000FFF7E5FF019A28B92046FFF7C9FF2046DF
:1071D00003B030BDA2602946206801F0BBFF2268E1
:1071E000A3680021D154F2E7002313B5C0E90033AE
:1071F00004468360037341B10846019101F0EEFF3C
:10720000019902462046FFF7D6FF204602B010BD86
:1072100013B5044659B10846019101F0DFFF019909
:1072200002462046FFF7C7FF204602B010BDFFF719
:1072300097FFF9E708B5006840B101F071FF51EC24
:10724000100B01F0FFFE00EE100A08BD9FED010AD1
:10725000FBE700BF0000000010B50446006808B15D
:10726000FFF7FAFB204610BD10B58368044613B142
:10727000032201469847204610BD000010B5064C79
:10728000002320462360FFF7DFFB2046034A044922
:10729000BDE8104001F006B96CE6032008E50320C4
:1072A00059720D00F8B506460D468F180024BD42F0
:1072B0000CD0336815F8011B9B6830469847031EB5
:1072C00001DB1C44F3E7002C08BF1C462046F8BD38
:1072D00013B50446084659B1019101F07FFF2368B8
:1072E0000199DB680246204602B0BDE8104018470D
:1072F00002B010BD08B5FFF7EBFF08BD03689B683F
:10730000184738B50D210546FFF7F8FF0A21044656
:107310002846FFF7F3FF204438BD30B58BB000237B
:107320008DF82430012A98BF0A2209AC0D46B1FB22
:10733000F2F101FB125303F0FF03092B94BF30332A
:107340003733DBB2AA4204F8013DEFD92146FFF7FB
:10735000BFFF0BB030BD00002DE9F74F55EC104BCF
:1073600006460F4610EE102A10EE100A2B4629464C
:1073700001F00AFE40B153493046FFF7A9FF8246AB
:10738000504603B0BDE8F08F25F000494E4B4FF05A
:10739000FF322046494601F0F7FD48B94A4B4FF00D
:1073A000FF322046494601F0D1FD08B94749E3E7DD
:1073B000474B4FF060422046294601F0DBFD08B103
:1073C0004449D9E7444B4FF060422046294601F03A
:1073D000B3FD0028F4D1002200232046294601F005
:1073E000ABFDD0B12D213046FFF788FF05F10043FA
:1073F00082461D463949DFF8EC904FF0000B002023
:107400004FF000085FFA8BF39F4208D942464B4683
:1074100001F04AFC0BF1010BF4E78246EAE7224651
:107420002B4601F061F90D46044601F0EBFD804664
:1074300001F096FA02460B462046294601F052F921
:107440000A2204460D4630464146FFF766FF824455
:1074500027B123493046FFF73BFF8244DFF8849091
:107460004FF00008013FFFB2FF2F89D042464B4644
:107470002046294601F0EEFA04460D4601F09AFD39
:10748000B0F1000B1ADA2D213046FFF737FFCBF1B0
:10749000000103460A2230460193FFF73EFF019B9D
:1074A00018448244584601F06BFA02460B462046C7
:1074B000294601F017F904460D46D3E75946002343
:1074C000E8E700BFECBF0D00FFFFEF7FF0BF0D004E
:1074D000FFFFEF41F4BF0D00FFFFEFC10000E03FF1
:1074E000F8BF0D000000244038B5C9B20546FFF7CB
:1074F00033FF04462846FFF704FF204438BD2DE93A
:10750000F04186B000AF05460E46381D14211446E2
:107510003B60FFF7D5FC13280ED8391D2846FFF72E
:10752000D7FE04461EB12846FFF7EBFE0444204672
:107530001837BD46BDE8F08100F1080323F00703CA
:10754000E846ADEB030D2246411C3B686846FFF759
:10755000B7FC69462846FFF7BBFE0446C546E1E78F
:1075600010B50446FFF748FAE060236820465B69DF
:107570009847002808DAFFF73FFAE368C01AA368C3
:107580009842F2D34FF0FF3010BDF8B506460D46D5
:1075900017460024BC4207D03046FFF7E1FF031E28
:1075A00002DB2B550134F5E72046F8BD0023406887
:1075B0001A461946FFF70CBC014B024A1A60704785
:1075C00070E60320FABF0D00024B1A68024B1A60E6
:1075D000704700BF2CE3032074E603200021FFF76F
:1075E000B3BB10B50446FFF73FFE204610BD0000B8
:1075F0000348044A04490023836000F053BF00BFDE
:1076000078E6032008E50320E3750D00014B1860C0
:10761000704700BF30E3032008B50B4B43B100F0C7
:107620007DF903681B699847002801DDAFF30080EE
:10763000064B43B100F0F0F903681B699847002836
:1076400001DDAFF3008008BD000000000000000075
:1076500008B5FFF7E1FFFFF7CFF9014B186008BD50
:10766000D8E703200248034A0349121A01F072BD09
:1076700000F4032004F4032040C50D0007B50023E7
:1076800000931A466FF07701FFF778FB03B05DF8BF
:1076900004FB000007B543880A2B08D0502B0BD100
:1076A000094B1B684BB103B05DF804EB1847FFF7BB
:1076B000E5FF03B05DF804FB002300931A466FF06A
:1076C0007701FFF75BFBF4E78CE6032038B5124C3B
:1076D0001248134D0021FFF70BFC2368AB42114BFE
:1076E0000CBF012200221A7002D0FFF7BBFF2560F9
:1076F000FFF772F9044601F043FD0B4B13B120462E
:10770000AFF3008000210848FFF7B2FBBDE8384026
:1077100006480021FFF728BB00F403200D760D007A
:107720001E1C279A88E603200000000095760D00B5
:10773000704710B51821044600F0B9FE204610BD70
:10774000F0B5037D062B8DB00E4600F104074FF017
:10775000000412D000F1080515F8011D0A22304678
:10776000FFF7DBFDAF42044419D0002CF4D02E21EA
:107770003046FFF7C3FD0444EEE72F236A4639463F
:107780000A208DF80040FFF76FF9684601F026FDEA
:1077900033680246DB68694630469847044620460F
:1077A0000DB0F0BD10B5054B0446112240F8043B66
:1077B000002101F0DDFC204610BD00BF24C00D00FB
:1077C0000346074A10B543F8042B01F1100251F8A3
:1077D000044B43F8044B9142F9D10A781A7010BD5A
:1077E00024C00D00037D042B04D14068003818BF6D
:1077F00001207047062B07D143683BB983682BB93A
:10780000C3681BB90069F1E7002070470120704789
:1078100010B59DF8084044EA032343EA024242EAD5
:10782000016104234160037510BD000037B5044DAC
:1078300005609DF818500095FFF7EAFF03B030BDD2
:1078400024C00D0013B5054B0360CB7800938B78F3
:107850004A780978FFF7DCFF02B010BD24C00D00A4
:1078600041747047704708B50021007CFFF73CFA6F
:1078700040EAE07008BD08B50121007CFFF734FA4A
:1078800040EAE07008BD08B5007CFFF725FA20EA61
:10789000E07008BD08B5007CFFF716FA20EAE0703A
:1078A00008BD13B50446007C0191FFF715FA0028C6
:1078B000019901DC607C20B1207CFFF71DFA20EAF1
:1078C000E07002B010BD007CFFF71EBA10B51421A5
:1078D000044600F0ECFD204610BD000010B54FF44A
:1078E0007A73044608460021C4E90113044B23605F
:1078F0000123207463741146FFF7D6F9204610BDAA
:1079000038C00D00007C0022FFF7D6B910B5142254
:107910000446002101F02CFC204610BD10B5104C8F
:1079200088B003A8FFF7F2FF2178BFF35B8F11F057
:10793000010111D120460191FCF7C0FB019958B11A
:1079400003AA0848FFF7CAFF2046FCF7BCFB064A1B
:107950000649044800F0A6FD024808B010BD00BF6B
:1079600090E6032094E6032008E5032065780D00E7
:1079700070474174704708B5007CFFF7C5F820EAEE
:10798000E07008BD08B5007CFFF796F820EAE070CB
:1079900008BD08B5007CFFF79FF840EAE07008BD1D
:1079A00008B5007CFFF790F840EAE07008BD007C65
:1079B000FFF79AB837B5457C04462DB1207C03B05B
:1079C000BDE83040FFF770B8007C0191FFF79CF8EC
:1079D00000280199F2DC284603B030BD10B514210F
:1079E000044600F064FD204610BD000010B54FF0C5
:1079F000000C0446084611464FF47A72C4E901C2ED
:107A0000044A22600122207462741A46FFF744F887
:107A1000204610BD68C00D0013B50E4C2178BFF391
:107A20005B8F11F0010112D120460191FCF746FB5A
:107A3000019960B1084A094B0948FFF7D7FF204672
:107A4000FCF741FB074A0849054800F02BFD0448B4
:107A500002B010BDA8E60320ACE6032030E7032007
:107A6000B4E7032008E5032071790D007047F8B5ED
:107A7000064615460C468F18BC4206D0336814F8EB
:107A8000011B9B6830469847F6E72846F8BD007C06
:107A90000022FFF761B8007C0021FFF765B8007C89
:107AA0000021FFF769B8007C0021FFF76DB8007C6A
:107AB0000021FFF771B810B51421044600F0F7FC5F
:107AC000204610BD10B54FF47A73044608460021D5
:107AD000C4E90113034B236020741146FFF76CF8CF
:107AE000204610BD98C00D00007C0022FFF714B89E
:107AF0000023007C1A461946FFF716B8007C0022C6
:107B0000FFF71AB8C9B2FFF7F9BF007C0022FFF7F0
:107B10001BB80121FFF7F9BF13B503688DF80710F3
:107B2000DC6B01224FF0FF330DF10701A04702B0DB
:107B300010BD10B40368DC6B4FF0FF33A4465DF852
:107B4000044B604713B5134602688DF80710D46BD9
:107B50000DF107010122A04702B010BD704738B5F2
:107B600043691A68002A054610DAB3F88620B3F88C
:107B700084309A420AD103681B699847044628B9A1
:107B80002B682846DB6A9847204638BD0120FCE771
:107B900043691868C043C00F70477047064B99424D
:107BA00010B500F10C0405D0084600F085FC002853
:107BB00008BF0024204610BDE4BF0D0010B5AC2165
:107BC000044600F074FC204610BDFCF768BA2DE9AD
:107BD000F0414FF0000886B01D46C0F8048004460E
:107BE0000E4617464146102202A801F0C1FA6B1C4E
:107BF00009D04FF47A70B5FBF0F3CDE9023800FB01
:107C0000135358430490606910230093006802AB3B
:107C100041F2050240F6FF71FEF7D6FF002807DAB1
:107C2000FFF75EF903686360002006B0BDE8F081ED
:107C30006069002300683A463146FEF7E5FF031EFF
:107C4000EEDB1846F1E7000038B584690A4B0360A3
:107C500005467CB16368013B63605BB923682046DD
:107C60009B689847A368013BA3601BB92368204623
:107C7000DB689847284638BDF4C00D0010B50446AF
:107C8000FFF7E2FF20461C2100F011FC204610BD4A
:107C900070B54D69054B04468C3544F8043B0646E7
:107CA0000FCD0FC42B682370304670BD24C00D006B
:107CB00010B54369B3F88620B3F884309A4204467D
:107CC00005D06369B3F884201344187910BD0368A4
:107CD0001B6998470028F4D14FF0FF30F6E710B544
:107CE0004369B3F88620B3F884309A42044608D03A
:107CF0006369B3F88420511CA3F8841013441879E5
:107D000010BD03681B6998470028F1D14FF0FF3080
:107D1000F6E7F8B543691746B3F88620B3F8843020
:107D20009A4205460E4616D06969B1F88430B1F81A
:107D30008640E41ABC4228BF3C460433224619441C
:107D4000304601F007FA6A69B2F884302344A2F899
:107D500084302046F8BD03681B6998470028E3D1AA
:107D60004FF0FF34F5E742690023A2F884304269FE
:107D7000A2F8863070472DE9F0411F4603680C4693
:107D8000DB6A8AB0054616469847237DD5F81480ED
:107D9000042B0CBF02200A2006220121FEF73CFF23
:107DA000C8F800006B691B68002B08DA2B682846AE
:107DB000DB6A0024984720460AB0BDE8F0812846D7
:107DC000FFF7D1FFB7B1002303A9F8B20393ADF8D1
:107DD0001030FEF7F9FD0028E8D16869062300930A
:107DE000006803AB41F20B0240F6FF71FEF7ECFEB8
:107DF0000028DBD11C22002103A801F0B9F9237D62
:107E0000042B1DD14FF407733046ADF80C30FEF74C
:107E10003BFEADF80E006068FEF72EFE04906B6925
:107E20001C22186803A9FEF7DFFE0028BED1043427
:107E30000FCC6D698C350FC523682B700124BAE710
:107E400040F61C233046ADF80C30FEF71DFE05AEA3
:107E5000ADF80E00231D04F1140718685968324666
:107E600003C20833BB421646F7D1D8E730B54269A2
:107E7000B2F886308BB004462BB1B2F884209A4217
:107E800001D1FFF770FF61690868002818DBB1F8BD
:107E900086507F2D14D804310823C5F1800229446F
:107EA000FEF7AAFE002813DD6369B3F886200AB93D
:107EB000A3F884206369B3F886201044A3F88600F1
:107EC0006369B3F88600B3F88430C01A0BB030BDD4
:107ED000FFF706F803680B2BF2D0FFF701F80368F1
:107EE0000B2BEDD020230025CDE90235FEF7F8FF5E
:107EF00003680193084B0949009302AA2B463220DC
:107F0000FEF712FF63691868FEF766FE63694FF0BB
:107F1000FF321A60D4E700BFBFC00D00B8C00D002B
:107F200010B5436904461868002801DBFEF754FECB
:107F300063694FF0FF321A606069112200218C30B2
:107F400001F016F92046BDE81040FFF70CBF10B550
:107F5000002304460160C0F884308830FFF722FC1B
:107F6000204610BD73B500234FF47A72C0E9013288
:107F70000E4A0361026043610446AC200191FCF7A4
:107F80008AF8051E05F10C0608D00123C5E9013366
:107F9000074B01992B603046FFF7D9FF2046C4E913
:107FA0000565FFF7E0FE02B070BD00BFF4C00D0034
:107FB000D8C00D0010B54FF0FF310446FFF7D2FFD7
:107FC000204610BD10B504460068002801DBFEF70E
:107FD00003FE204610BD0C30FFF7F4BF2DE9F0433F
:107FE0009846036893B00D460024DB6A06461746A0
:107FF000984728466B46224621460094FEF79CFC93
:108000000546002863D1009B002B4BD05B69002BF9
:1080100048D006A8FFF7C6FB009B5C696378022B7B
:1080200004D1211D06A8FFF785F826E00A2B24D1EC
:108030001122294601A801F09BF8A368002B38D033
:1080400004F108030DF1040C1834186859686246ED
:1080500003C20833A3429446F7D1062301A90CA812
:108060008DF81430FFF7ACFB0DF1340CBCE80F00B9
:1080700007AC0FC4DCF80030237006A8FFF7B2FB92
:1080800080B1336807ADD3F82090124B0C930FCD1D
:108090000DAC0FC42B6823703A4643460CA93046FA
:1080A000C84705460098FEF73FFC284613B0BDE8D8
:1080B000F083E368002BC3D14FF6FF70D4F8109023
:1080C000FEF7DAFC8145BBD104F11401AAE725468D
:1080D000E8E700BF24C00D00002240681146FEF70B
:1080E0006FBE002240681146FEF78ABE002240683B
:1080F0001146FEF795BE40680022FEF789BE406833
:10810000002281F00101FEF773BE002340681A4689
:108110001946FEF765BE002240681146FEF740BED4
:10812000406800220221FEF743BE002340681A4641
:10813000FEF72EBE024B04225A60024A1A607047B4
:10814000C8E7032040C10D00002340681A46FEF72F
:108150001FBE406800220221FEF72ABE00224068AE
:108160001146FEF71DBE002240681146FEF728BEEC
:10817000002340681A461946FEF72ABE00234068CD
:108180001A461946FEF72CBE40680021FEF750BE85
:1081900040680021FEF754BE4068002281F00101D2
:1081A000FEF726BE40680022FEF732BE002240687D
:1081B0001146FEF735BE002240681146FEF720BE8C
:1081C0002DE9F043002495B016460D460746FFF70B
:1081D000E9FA214618220EA8009400F0C9FF4023B6
:1081E000CDE90C3421466B460CAA3046FEF7A4FBC1
:1081F000044600284CD1024601216868FEF7E0FDE4
:108200000221804622466868FEF7DAFD009E81461C
:108210002146002E3CD000293AD17368022B03D0AE
:108220000A2B11D0F669F4E7B8F1000F0AD0716992
:1082300006A8043107ADFFF705FB0FCD3C1D0FC4A9
:108240002B6823704146EDE7B9F1000F01D1494693
:10825000E8E77469102201A800F08AFF06238DF870
:10826000143001AD04F108031834186859682A461F
:1082700003C20833A3421546F7D101A906A807ADEA
:10828000FFF79EFA0FCD3C1D0FC42B682370DEE76D
:108290000098FEF749FB384615B0BDE8F0830000B2
:1082A000024B034A1A6000225A607047D0E703204D
:1082B0007CC10D00232813B502D9002002B010BDE7
:1082C000A0F10B03022B1AD8174C2178BFF35B8F58
:1082D00011F001010BD120460191FBF7EFFE01994E
:1082E00028B11248FEF750FE2046FBF7ECFE0F4B7C
:1082F0001878FEF7B1FC0028DFD10120DEE7012865
:1083000009D800F0A7F80021007CFEF74DFC80F0B2
:108310000100C0B2D2E709380128EED8FFF77CFB94
:10832000007CFEF7E9FBF2E748E603204CE6032079
:10833000232838B504460D460AD8FF2908D0FFF790
:10834000B9FF28B129462046BDE83840FEF704BBF6
:1083500038BD38B504460D46FEF706FBFF2810D0A1
:10836000062804D84D2323FA00F0C30709D4204679
:10837000FFF7A0FF28B129462046BDE83840FEF7A8
:10838000FBBA38BD10B50446FEF7EEFA031FDBB2A8
:10839000012B08D92046FFF78DFF20B12046BDE80C
:1083A0001040FEF7F1BA002010BD0D2810B50446AC
:1083B0009CBF0E34A4B22046FFF77CFF50B10321CE
:1083C0002046FEF7C1FA032804D12046BDE810403C
:1083D000FEF7EABA002010BD38B504460D46FFF797
:1083E00069FFF0B104212046FEF7AEFA042805D15A
:1083F000A9B22046BDE83840FEF7CEBA0221204699
:10840000FEF7A2FA02280CD12046FEF7ADFA0128A9
:1084100001D0042805D129462046BDE83840FEF7A2
:10842000CBBA38BD38B50023202543801423044639
:108430000380856005610649284600F03AF8044942
:108440006060284600F035F8E060204638BD00BF87
:10845000B0C10D0030B50F4D2978BFF35B8F11F01F
:10846000010487B013D12846FBF728FE78B101A894
:10847000FFF7D8FF01AA21460748FFF723FB28464C
:10848000FBF721FE054A0649034800F00BF80248B5
:1084900007B030BDDCE70320E0E7032008E5032058
:1084A0006D7A0D000B460146184600F045BEFBF7FD
:1084B000F6BDFBF7F2BD0000014900F0F9B800BFBE
:1084C000CCC10D007FB500241023CDE90234036830
:1084D00000949E698DF8044015466B461268B047BB
:1084E0009DF8043003F00603062B03BF009B2B60AE
:1084F0000120204604B070BD0098904214BF0120B6
:108500000620704710B5034B0360044600F0CDF819
:10851000204610BD0CC20D0010B50446FFF7F2FF57
:1085200020460821FFF7C3FF204610BD2DE9F0418A
:108530001F46DDE90834DDF81880984506461546E3
:1085400007D1079900F0B4F818B165710020BDE8B3
:10855000F0813946304600F0ABF80028F6D0012310
:10856000C4F800802571A371F0E738B515461C46A4
:1085700000F09EF820B10823E360062325602371F4
:1085800038BD73B505460C4601921E4600F090F8C2
:1085900050B9032E08D82368019A5B692946204602
:1085A00002B0BDE87040184702B070BD10B5034B73
:1085B00003600446FFF7A6FF204610BD6CC20D0005
:1085C00010B50446FFF7F2FF20460C21FFF76FFFBE
:1085D000204610BDF7B5089F974205460E46144643
:1085E0000AD0A86802680897156A31462246AC4648
:1085F00003B0BDE8F04060471946019300F058F819
:10860000019B0028EDD0062003B0F0BD2DE9F14F0D
:108610000D461946DDE90A4BDDE90CA681461746F1
:10862000984600F045F890B1002D3460377109DBB1
:1086300061198A450CBF06210121B171002001B0EA
:10864000BDE8F08F0235F9D10123B371F6E7544547
:1086500006D15946484600F02BF808B17771EDE78E
:10866000D9F808000368CDE90CA6CDE90A4BDC690E
:108670003A4643462946A44601B0BDE8F04F60475C
:108680002DE9F04107460C4615461E46FFF76DFFE3
:1086900048B9B86803689F692A4633462146BC46F4
:1086A000BDE8F0416047BDE8F081704700207047A9
:1086B000814208B50ED0406803782A2B0CD0496857
:1086C0000B782A2B08BF013100F07EFDB0FA80F054
:1086D000400908BD0120FCE70020FAE781F00041D5
:1086E00002E000BF83F0004330B54FEA41044FEA97
:1086F000430594EA050F08BF90EA020F1FBF54EA32
:10870000000C55EA020C7FEA645C7FEA655C00F0CD
:10871000E2804FEA5454D4EB5555B8BF6D420CDD9E
:108720002C4480EA020281EA030382EA000083EA21
:10873000010180EA020281EA0303362D88BF30BDC1
:1087400011F0004F4FEA01314FF4801C4CEA113117
:1087500002D0404261EB410113F0004F4FEA033376
:108760004CEA133302D0524263EB430394EA050F01
:1087700000F0A780A4F10104D5F1200E0DDB02FA70
:108780000EFC22FA05F2801841F1000103FA0EF204
:10879000801843FA05F359410EE0A5F120050EF1CA
:1087A000200E012A03FA0EFC28BF4CF0020C43FAFB
:1087B00005F3C01851EBE37101F0004507D54FF008
:1087C000000EDCF1000C7EEB00006EEB0101B1F558
:1087D000801F1BD3B1F5001F0CD349085FEA30009E
:1087E0004FEA3C0C04F101044FEA445212F5800FA9
:1087F00080F09A80BCF1004F08BF5FEA500C50F146
:10880000000041EB045141EA050130BD5FEA4C0C28
:10881000404141EB0101013C28BFB1F5801FE9D285
:1088200091F0000F04BF01460020B1FA81F308BFA8
:108830002033A3F10B03B3F120020CDA0C3208DD74
:1088400002F1140CC2F10C0201FA0CF021FA02F14F
:108850000CE002F11402D8BFC2F1200C01FA02F1BF
:1088600020FA0CFCDCBF41EA0C019040E41AA2BFE4
:1088700001EB0451294330BD6FEA04041F3C1CDAAC
:108880000C340EDC04F11404C4F1200220FA04F0CC
:1088900001FA02F340EA030021FA04F345EA030176
:1088A00030BDC4F10C04C4F1200220FA02F001FA38
:1088B00004F340EA0300294630BD21FA04F02946BA
:1088C00030BD94F0000F83F4801306BF81F4801153
:1088D0000134013D4EE77FEA645C18BF7FEA655CC6
:1088E00029D094EA050F08BF90EA020F05D054EA98
:1088F000000C04BF1946104630BD91EA030F1EBF9D
:108900000021002030BD5FEA545C05D140004941A0
:1089100028BF41F0004130BD14F580043CBF01F593
:10892000801130BD01F0004545F0FE4141F4700179
:108930004FF0000030BD7FEA645C1ABF1946104654
:108940007FEA655C1CBF0B46024650EA013406BF55
:1089500052EA033591EA030F41F4002130BD00BF14
:1089600090F0000F04BF0021704730B54FF48064D1
:1089700004F132044FF000054FF0000150E700BF52
:1089800090F0000F04BF0021704730B54FF48064B1
:1089900004F1320410F0004548BF40424FF000019E
:1089A0003EE700BF42004FEAE2014FEA31014FEAE1
:1089B00002701FBF12F07F4393F07F4F81F0605130
:1089C000704732F07F4208BF704793F07F4F04BF7B
:1089D00041F40021704730B54FF4607401F0004558
:1089E00021F000411CE700BF50EA010208BF7047B8
:1089F00030B54FF000050AE050EA010208BF7047A9
:108A000030B511F0004502D5404261EB41014FF411
:108A1000806404F132045FEA915C3FF4D8AE4FF019
:108A200003025FEADC0C18BF03325FEADC0C18BFFC
:108A3000033202EBDC02C2F1200300FA03FC20FA4D
:108A400002F001FA03FE40EA0E0021FA02F114449A
:108A5000BDE600BF70B54FF0FF0C4CF4E06C1CEAB3
:108A600011541DBF1CEA135594EA0C0F95EA0C0F24
:108A700000F0DEF82C4481EA030621EA4C5123EA97
:108A80004C5350EA013518BF52EA033541F48011C6
:108A900043F4801338D0A0FB02CE4FF00005E1FB79
:108AA00002E506F00042E0FB03E54FF00006E1FBC3
:108AB00003569CF0000F18BF4EF0010EA4F1FF0406
:108AC000B6F5007F64F5407404D25FEA4E0E6D4146
:108AD00046EB060642EAC62141EA55514FEAC52057
:108AE00040EA5E504FEACE2EB4F1FD0C88BFBCF5D3
:108AF000E06F1ED8BEF1004F08BF5FEA500E50F184
:108B0000000041EB045170BD06F0004646EA010149
:108B100040EA020081EA0301B4EB5C04C2BFD4EB7B
:108B20000C0541EA045170BD41F480114FF0000E74
:108B3000013C00F3AB8014F1360FDEBF002001F0E2
:108B4000004170BDC4F10004203C35DA0C341BDC5C
:108B500004F11404C4F1200500FA05F320FA04F02E
:108B600001FA05F240EA020001F0004221F0004162
:108B700010EBD37021FA04F642EB06015EEA430ED5
:108B800008BF20EAD37070BDC4F10C04C4F1200505
:108B900000FA04F320FA05F001FA04F240EA0200B8
:108BA00001F0004110EBD37041F100015EEA430E89
:108BB00008BF20EAD37070BDC4F1200500FA05F2A9
:108BC0004EEA020E20FA04F301FA05F243EA020328
:108BD00021FA04F001F0004121FA04F220EA020037
:108BE00000EBD3705EEA430E08BF20EAD37070BD7D
:108BF00094F0000F0FD101F00046400041EB01015D
:108C000011F4801F08BF013CF7D041EA060195F03E
:108C1000000F18BF704703F00046520043EB0303F8
:108C200013F4801F08BF013DF7D043EA06037047E5
:108C300094EA0C0F0CEA135518BF95EA0C0F0CD0F0
:108C400050EA410618BF52EA4306D1D181EA030136
:108C500001F000414FF0000070BD50EA410606BF30
:108C60001046194652EA430619D094EA0C0F02D175
:108C700050EA013613D195EA0C0F05D152EA0336BA
:108C80001CBF104619460AD181EA030101F00041D8
:108C900041F0FE4141F470014FF0000070BD41F021
:108CA000FE4141F4780170BD70B54FF0FF0C4CF4FB
:108CB000E06C1CEA11541DBF1CEA135594EA0C0F1A
:108CC00095EA0C0F00F0A7F8A4EB050481EA030E67
:108CD00052EA03354FEA013100F088804FEA03334E
:108CE0004FF0805545EA131343EA12634FEA02221C
:108CF00045EA111545EA10654FEA00260EF00041DD
:108D00009D4208BF964244F1FD0404F5407402D22E
:108D10005B084FEA3202B61A65EB03055B084FEABF
:108D200032024FF480104FF4002CB6EB020E75EBBC
:108D3000030E22BFB61A754640EA0C005B084FEAE4
:108D40003202B6EB020E75EB030E22BFB61A754661
:108D500040EA5C005B084FEA3202B6EB020E75EBAC
:108D6000030E22BFB61A754640EA9C005B084FEA24
:108D70003202B6EB020E75EB030E22BFB61A754631
:108D800040EADC0055EA060E18D04FEA051545EA20
:108D900016754FEA06164FEAC30343EA52734FEAC9
:108DA000C2025FEA1C1CC0D111F4801F0BD141EA42
:108DB00000014FF000004FF0004CB6E711F4801FA7
:108DC00004BF01430020B4F1FD0C88BFBCF5E06F87
:108DD0003FF6AFAEB5EB030C04BFB6EB020C5FEA97
:108DE000500C50F1000041EB045170BD0EF0004EEC
:108DF0004EEA113114EB5C04C2BFD4EB0C0541EA1E
:108E0000045170BD41F480114FF0000E013C90E61A
:108E100045EA060E8DE60CEA135594EA0C0F08BFDE
:108E200095EA0C0F3FF43BAF94EA0C0F0AD150EADD
:108E300001347FF434AF95EA0C0F7FF425AF104670
:108E400019462CE795EA0C0F06D152EA03353FF498
:108E5000FDAE1046194622E750EA410618BF52EA15
:108E600043067FF4C5AE50EA41047FF40DAF52EAE9
:108E700043057FF4EBAE12E74FF0FF3C06E000BF86
:108E80004FF0010C02E000BF4FF0010C4DF804CD93
:108E90004FEA410C7FEA6C5C4FEA430C18BF7FEA53
:108EA0006C5C1BD001B050EA410C0CBF52EA430C81
:108EB00091EA030F02BF90EA020F0020704710F101
:108EC000000F91EA030F58BF994208BF90422CBF90
:108ED000D8176FEAE37040F0010070474FEA410C89
:108EE0007FEA6C5C02D150EA013C07D14FEA430CA7
:108EF0007FEA6C5CD6D152EA033CD3D05DF8040B18
:108F0000704700BF8446104662468C461946634649
:108F100000E000BF01B5FFF7B7FF002848BF10F120
:108F2000000F01BD4DF808EDFFF7F4FF0CBF012065
:108F300000205DF808FB00BF4DF808EDFFF7EAFFE1
:108F400034BF012000205DF808FB00BF4DF808ED9C
:108F5000FFF7E0FF94BF012000205DF808FB00BF91
:108F60004DF808EDFFF7CEFF94BF012000205DF81B
:108F700008FB00BF4DF808EDFFF7C4FF34BF012028
:108F800000205DF808FB00BF4FEA410C7FEA6C5CF3
:108F900002D150EA013C0AD14FEA430C7FEA6C5CF3
:108FA00002D152EA033C02D14FF0000070474FF06B
:108FB000010070474FEA410212F5001215D211D597
:108FC0006FF47873B3EB625212D94FEAC12343F0C6
:108FD000004343EA505311F0004F23FA02F018BF48
:108FE000404270474FF00000704750EA013005D111
:108FF00011F0004008BF6FF0004070474FF00000D4
:10900000704700BF4A0011D212F5001211D20DD5DF
:109010006FF47873B3EB62520ED44FEAC12343F07E
:10902000004343EA505323FA02F070474FF0000028
:10903000704750EA013002D14FF0FF3070474FF0D7
:10904000000070474FEA4102B2F1E04324BFB3F59C
:10905000001CDCF1FE5C0DD901F0004C4FEAC002AF
:109060004CEA5070B2F1004F40EB830008BF20F093
:109070000100704711F0804F21D113F13872BCBF4D
:1090800001F00040704741F480114FEA5252C2F1A2
:109090001802C2F1200C10FA0CF320FA02F018BFEB
:1090A00040F001004FEAC1234FEAD32303FA0CFC3E
:1090B00040EA0C0023FA02F34FEA4303CCE77FEACD
:1090C000625307D150EA01331EBF4FF0FE4040F417
:1090D0004000704701F0004040F0FE4040F40000C6
:1090E000704700BFD0B50C4B002206460F46FFF775
:1090F000B1FCFFF787FF0446FFF732FC074B002265
:10910000FFF7A8FC02460B4630463946FFF7EAFA5D
:10911000FFF778FF2146D0BD0000F03D0000F04190
:10912000002100F0AFBE0A22002100F031BF0A2268
:10913000002100F02DBF000010B5054C13462CB1E6
:109140000A4601460220AFF3008010BD2046FCE72E
:10915000000000000A44914200F1FF3300D1704743
:1091600010B511F8014B03F8014F9142F9D110BD30
:1091700002440346934200D1704703F8011BF9E70C
:1091800038B50D4B1D68AB6B04467BB91820FDF755
:1091900077FE0A4A0A4BA863C0E90023094B8360A3
:1091A0000B23838101220023C0E90423AB6B00223F
:1091B0001C615A6138BD00BF30E303200E33CDABD4
:1091C00034126DE6ECDE050010F8012B11F8013BBE
:1091D000012A28BF9A42F7D0D01A7047034613F8E5
:1091E000012B002AFBD1181A0138704710B56AB15B
:1091F0000139841810F8013B11F8012F934203D173
:10920000A04201D0002BF5D1981A10BD1046FCE702
:1092100010B50139034632B111F8014F03F8014B83
:10922000013A002CF7D11A440021934200D110BD1D
:1092300003F8011BF9E770B504460D4645EC104BE9
:10924000164601F01BFD51EC100B7EB1C5F30A531D
:10925000C3F16B03002B09DD1B0503F17F550024CF
:1092600005F5401522462B46FFF7F4FB70BD0000C4
:109270002DE9F04FA3B01F4600231E93A44B199273
:109280001B680793044618468846FFF7A7FF4FF070
:10929000000A05464FF0000BCDF874801D9B1A782C
:1092A0002B2A4CD039D80D2A32D8082A32D8002A95
:1092B0003CD000230E931D9E3378302B40F0B480B9
:1092C000737803F0DF03582B6CD10E9B01931EAB18
:1092D000029700938F4A1FAB1DA9204600F0CAFEDB
:1092E00010F00707054605D0062F2AD101360023C6
:1092F0001D960E93199B002B40F096850E9BDBB1BB
:1093000052460BF1004343EC102B23B0BDE8F08F25
:10931000202ACED101331D93C0E72D2AC9D10122C5
:109320000E925A1C1D925B78002BC4D1199BCDF86C
:109330007480002B40F0768552465B46E3E70022BE
:10934000EEE71E9A3AB1352120A801F096FD1E994C
:10935000204601F0CBF9013F052F07D8DFE807F0E1
:109360000E0B181D0E034FF0000BDA462807C1D56F
:109370004BF0004BBEE7DDE920ABF7E7DDE920A3CA
:109380001F9A23F4801302F2334243EA025BEDE7B3
:10939000DFF884B14FF0000AE8E76FF0004B4FF0C0
:1093A000FF3AE3E71D9B5A1C1D925B78302BF9D0E6
:1093B000002B9FD001234FF0000904931D9B0A93BB
:1093C000CDF824904F460A221D980678A6F1300366
:1093D000D9B209292AD907992A46FFF707FF98B376
:1093E000002033463D4607900246652B01D0452BB1
:1093F00018D11DB9049B034398D00025DDF8748073
:1094000008F101031D9398F801302B2B75D02D2BFB
:109410007BD04FF0000CA3F13001092940F282808B
:10942000CDF8748000269DE00023C4E7082FD8BF44
:10943000099900F10100DABF02FB0133099302FB35
:10944000093901371D90BFE71D9B5A191D925B5DBD
:10945000002F37D007903D46A3F13002092A12D9D8
:109460000122C2E71D9B5A1C1D925B780130302BF4
:10947000F8D0A3F13102082A00F2DB841D9A07908C
:1094800000200A920546303B00F1010214D00799F2
:10949000114407912A4600EB050E0A21724513D1AB
:1094A0002A18082A05F1010505441CDC09990A223D
:1094B00002FB0133099300221D9B591C1D915B780F
:1094C0001046C9E73846D2E7082A04DC099E4E4315
:1094D00009960132E2E702F1010CBCF1100FD8BF8E
:1094E00001FB09F9F5E7102DDCBF0A2202FB09395F
:1094F000E1E70023079301227CE74FF0000C08F11D
:1095000002031D9398F8023085E74FF0010CF6E74F
:1095100004C40D00ACC20D000000F07F1D9B591C5F
:109520001D915B78302BF9D0A3F1310108293FF66A
:1095300079AFA3F1300E1D9B08931D9B591C1D9103
:109540005B78A3F13006092E37D9089E891B0829BC
:1095500044F61F6602DC7645A8BF7646BCF1000FD4
:1095600000D07642002D4FD1049901437FF4C2AE62
:10957000002A7FF4DBAE692B27D024DC492B24D0D2
:109580004E2B7FF4D3AE9E491DA800F0B9FF0028F2
:109590003FF4CCAE1D9B1B78282B2DD1994920AAD6
:1095A0001DA800F0C1FF052826D1219BDDF880A071
:1095B00043F0FF4B4BF4E00B9CE60A2101FB0E3E0F
:1095C000AEF1300EB9E76E2BDBE78F491DA800F036
:1095D00097FF00283FF4AAAE1D9B8C49013B1DA8B4
:1095E0001D9300F08DFF10B91D9B01331D93DFF813
:1095F0002CB24FF0000A7DE6854801F091FC8DED1C
:10960000040BDDE904AB75E6079B0998F31A002FFC
:1096100008BF2F46102D0893A846A8BF4FF010088A
:10962000FFF79EF9092D82468B4613DD794B03EB3C
:10963000C80353E91223FFF70DFA824648468B46CA
:10964000FFF78EF902460B4650465946FFF74CF895
:1096500082468B460F2D38DC089B002B3FF44AAE28
:1096600024DD162B0BDC6B4D05EBC305D5E90001A2
:1096700052465B46FFF7EEF982468B463AE6089A79
:10968000C5F12503934220DB624CC5F10F0504EBC5
:10969000C50152465B46D1E90001FFF7DBF9089BA3
:1096A0005D1B04EBC504D4E90023E3E7089B1633F4
:1096B0000BDB079B574A9E1B02EBC606D6E900232D
:1096C00050465946FFF7F0FAD6E7089BA5EB080885
:1096D0009844B8F1000F71DD18F00F030AD04D491E
:1096E00001EBC30152465B46D1E90001FFF7B2F935
:1096F00082468B4638F00F084DD0B8F59A7F22DDB0
:1097000000252E46099507952223DFF810B1236026
:109710004FF0000A099B002B3FF4ECAD1E99204648
:1097200000F0E4FF0799204600F0E0FF31462046B4
:1097300000F0DCFF0999204600F0D8FF29462046BA
:1097400000F0D4FFD6E500234FEA281850465946CA
:109750009946B8F1010F21DC0BB182468B462E4BA6
:10976000ABF1547B03EBC90952465B46D9E90001D2
:10977000FFF770F9294B0A460B4029498B42824674
:10978000BED8A1F580118B4286BFDFF898B04FF0AC
:10979000FF3A02F1547B0023049381E018F0010F9B
:1097A00007D01D4B03EBC903D3E90023FFF752F9A0
:1097B000012309F101094FEA6808CAE7EBD0C8F1B3
:1097C000000818F00F020AD0124B03EBC2035046F8
:1097D0005946D3E90023FFF767FA82468B465FEAD2
:1097E0002818D8D0B8F11F0F1EDD00252E46099588
:1097F000079522234FF0000A4FF0000B236089E702
:10980000EDBF0D00C0C20D00F1BF0D00A5C20D00DF
:10981000B3AF0D0040C40D0018C40D000000F07F70
:109820000000A07CFFFFEF7F18F0100318BF6A2331
:10983000DFF8B493049350465946002318F0010F03
:1098400004D0D9E90023FFF705F901235FEA68088E
:1098500009F10809F2D10BB182468B46049BBBB1DA
:10986000CBF30A53C3F16B03002B594610DD1F2BBA
:1098700040F32881342BDEBF203B4FF0FF3202FA49
:1098800003F34FF0000ACCBF4FF05C7B03EA010BFF
:109890000022002350465946FFF744FB0028A4D17C
:1098A000099B00930A992B463A46204600F073FF25
:1098B000099000283FF424AF079B9E1B089B002BB8
:1098C000B4BF334600231093089B002523EAE373BB
:1098D00018932E46099B2046596800F0D3FE079046
:1098E00000283FF411AF099B1A69023203F10C0101
:1098F00092000C30FFF72EFC4BEC10AB20AA1FA9F6
:109900002046CDE90AAB01F035FA1E9000283FF45D
:10991000FBAE0121204600F0CCFF064600283FF4B4
:10992000F3AE1F9B0499002BABBF109A189A189F97
:10993000DDF84090ACBF03EB0209D71A209AA3EBE5
:1099400001089044A34B08F1FF389845C2F1360254
:1099500080F2CC80A3EB08031F2BA2EB03024FF095
:10996000010100F3B68001FA03F3119300230C9375
:1099700009EB0208049BC14517441F444B46A8BF8E
:109980004346BB42A8BF3B46002BC2BFA8EB03081F
:10999000FF1AA9EB0309109B002B17DD31461A466D
:1099A000204601F02BF8064600283FF4ADAE0146F4
:1099B0001E9A204600F086FF0F9000283FF4A4AEC8
:1099C0001E99204600F092FE0F9B1E93B8F1000FE7
:1099D00000F39180089B002B08DD189A0799204618
:1099E00001F00CF8079000283FF48EAE002F08DD40
:1099F00007993A46204601F04FF8079000283FF4B7
:109A000083AEB9F1000F08DD31464A46204601F029
:109A100043F8064600283FF477AE079A1E99204681
:109A200001F0B5F8054600283FF46EAEC3680F9309
:109A30000023C360314601F08EF8002865DA0F9BE1
:109A400053EA0A0340F08780CBF31303002B40F066
:109A500082802BF000431B0D1B05B3F1D66F7AD922
:109A60006B6913B92B69012B75DD2946012220464C
:109A700001F012F83146054601F06DF800286ADD64
:109A80000499554A5B46002900F0858002EA0B01E3
:109A9000B1F1D66F7FDCB1F15C7F7FF7AAAE4F4AA0
:109AA0000023CDE916325046DDE916235946FEF76C
:109AB000D1FF0B46034308BF222382468B4608BFD3
:109AC00023602BE64FF0FF3202FA03F303EA0A0A9F
:109AD000DEE6C8F17F4808F57F0808F57B4808F105
